{
  "_format": "hh-sol-artifact-1",
  "contractName": "ProductTracking",
  "sourceName": "contracts/ProductTracking.sol",
  "abi": [
    {
      "inputs": [],
      "stateMutability": "nonpayable",
      "type": "constructor"
    },
    {
      "inputs": [
        {
          "internalType": "address",
          "name": "sender",
          "type": "address"
        },
        {
          "internalType": "uint256",
          "name": "tokenId",
          "type": "uint256"
        },
        {
          "internalType": "address",
          "name": "owner",
          "type": "address"
        }
      ],
      "name": "ERC721IncorrectOwner",
      "type": "error"
    },
    {
      "inputs": [
        {
          "internalType": "address",
          "name": "operator",
          "type": "address"
        },
        {
          "internalType": "uint256",
          "name": "tokenId",
          "type": "uint256"
        }
      ],
      "name": "ERC721InsufficientApproval",
      "type": "error"
    },
    {
      "inputs": [
        {
          "internalType": "address",
          "name": "approver",
          "type": "address"
        }
      ],
      "name": "ERC721InvalidApprover",
      "type": "error"
    },
    {
      "inputs": [
        {
          "internalType": "address",
          "name": "operator",
          "type": "address"
        }
      ],
      "name": "ERC721InvalidOperator",
      "type": "error"
    },
    {
      "inputs": [
        {
          "internalType": "address",
          "name": "owner",
          "type": "address"
        }
      ],
      "name": "ERC721InvalidOwner",
      "type": "error"
    },
    {
      "inputs": [
        {
          "internalType": "address",
          "name": "receiver",
          "type": "address"
        }
      ],
      "name": "ERC721InvalidReceiver",
      "type": "error"
    },
    {
      "inputs": [
        {
          "internalType": "address",
          "name": "sender",
          "type": "address"
        }
      ],
      "name": "ERC721InvalidSender",
      "type": "error"
    },
    {
      "inputs": [
        {
          "internalType": "uint256",
          "name": "tokenId",
          "type": "uint256"
        }
      ],
      "name": "ERC721NonexistentToken",
      "type": "error"
    },
    {
      "inputs": [
        {
          "internalType": "address",
          "name": "owner",
          "type": "address"
        }
      ],
      "name": "OwnableInvalidOwner",
      "type": "error"
    },
    {
      "inputs": [
        {
          "internalType": "address",
          "name": "account",
          "type": "address"
        }
      ],
      "name": "OwnableUnauthorizedAccount",
      "type": "error"
    },
    {
      "anonymous": false,
      "inputs": [
        {
          "indexed": true,
          "internalType": "address",
          "name": "owner",
          "type": "address"
        },
        {
          "indexed": true,
          "internalType": "address",
          "name": "approved",
          "type": "address"
        },
        {
          "indexed": true,
          "internalType": "uint256",
          "name": "tokenId",
          "type": "uint256"
        }
      ],
      "name": "Approval",
      "type": "event"
    },
    {
      "anonymous": false,
      "inputs": [
        {
          "indexed": true,
          "internalType": "address",
          "name": "owner",
          "type": "address"
        },
        {
          "indexed": true,
          "internalType": "address",
          "name": "operator",
          "type": "address"
        },
        {
          "indexed": false,
          "internalType": "bool",
          "name": "approved",
          "type": "bool"
        }
      ],
      "name": "ApprovalForAll",
      "type": "event"
    },
    {
      "anonymous": false,
      "inputs": [
        {
          "indexed": true,
          "internalType": "address",
          "name": "previousOwner",
          "type": "address"
        },
        {
          "indexed": true,
          "internalType": "address",
          "name": "newOwner",
          "type": "address"
        }
      ],
      "name": "OwnershipTransferred",
      "type": "event"
    },
    {
      "anonymous": false,
      "inputs": [
        {
          "indexed": true,
          "internalType": "uint256",
          "name": "tokenId",
          "type": "uint256"
        },
        {
          "indexed": true,
          "internalType": "address",
          "name": "recipient",
          "type": "address"
        },
        {
          "indexed": false,
          "internalType": "string",
          "name": "productInfo",
          "type": "string"
        }
      ],
      "name": "ProductMinted",
      "type": "event"
    },
    {
      "anonymous": false,
      "inputs": [
        {
          "indexed": true,
          "internalType": "uint256",
          "name": "tokenId",
          "type": "uint256"
        },
        {
          "indexed": true,
          "internalType": "address",
          "name": "from",
          "type": "address"
        },
        {
          "indexed": true,
          "internalType": "address",
          "name": "to",
          "type": "address"
        }
      ],
      "name": "ProductTransferred",
      "type": "event"
    },
    {
      "anonymous": false,
      "inputs": [
        {
          "indexed": true,
          "internalType": "uint256",
          "name": "tokenId",
          "type": "uint256"
        },
        {
          "indexed": false,
          "internalType": "string",
          "name": "newProductInfo",
          "type": "string"
        }
      ],
      "name": "ProductUpdated",
      "type": "event"
    },
    {
      "anonymous": false,
      "inputs": [
        {
          "indexed": true,
          "internalType": "address",
          "name": "from",
          "type": "address"
        },
        {
          "indexed": true,
          "internalType": "address",
          "name": "to",
          "type": "address"
        },
        {
          "indexed": true,
          "internalType": "uint256",
          "name": "tokenId",
          "type": "uint256"
        }
      ],
      "name": "Transfer",
      "type": "event"
    },
    {
      "inputs": [
        {
          "internalType": "uint256",
          "name": "tokenId",
          "type": "uint256"
        }
      ],
      "name": "_existsPublic",
      "outputs": [
        {
          "internalType": "bool",
          "name": "",
          "type": "bool"
        }
      ],
      "stateMutability": "view",
      "type": "function"
    },
    {
      "inputs": [
        {
          "internalType": "address",
          "name": "to",
          "type": "address"
        },
        {
          "internalType": "uint256",
          "name": "tokenId",
          "type": "uint256"
        }
      ],
      "name": "approve",
      "outputs": [],
      "stateMutability": "nonpayable",
      "type": "function"
    },
    {
      "inputs": [
        {
          "internalType": "address",
          "name": "owner",
          "type": "address"
        }
      ],
      "name": "balanceOf",
      "outputs": [
        {
          "internalType": "uint256",
          "name": "",
          "type": "uint256"
        }
      ],
      "stateMutability": "view",
      "type": "function"
    },
    {
      "inputs": [
        {
          "internalType": "uint256",
          "name": "tokenId",
          "type": "uint256"
        }
      ],
      "name": "getApproved",
      "outputs": [
        {
          "internalType": "address",
          "name": "",
          "type": "address"
        }
      ],
      "stateMutability": "view",
      "type": "function"
    },
    {
      "inputs": [
        {
          "internalType": "uint256",
          "name": "tokenId",
          "type": "uint256"
        }
      ],
      "name": "getProductDetails",
      "outputs": [
        {
          "internalType": "string",
          "name": "",
          "type": "string"
        },
        {
          "internalType": "address",
          "name": "",
          "type": "address"
        }
      ],
      "stateMutability": "view",
      "type": "function"
    },
    {
      "inputs": [
        {
          "internalType": "address",
          "name": "owner",
          "type": "address"
        },
        {
          "internalType": "address",
          "name": "operator",
          "type": "address"
        }
      ],
      "name": "isApprovedForAll",
      "outputs": [
        {
          "internalType": "bool",
          "name": "",
          "type": "bool"
        }
      ],
      "stateMutability": "view",
      "type": "function"
    },
    {
      "inputs": [
        {
          "internalType": "address",
          "name": "recipient",
          "type": "address"
        },
        {
          "internalType": "string",
          "name": "productInfo",
          "type": "string"
        }
      ],
      "name": "mintProductNFT",
      "outputs": [
        {
          "internalType": "uint256",
          "name": "",
          "type": "uint256"
        }
      ],
      "stateMutability": "nonpayable",
      "type": "function"
    },
    {
      "inputs": [],
      "name": "name",
      "outputs": [
        {
          "internalType": "string",
          "name": "",
          "type": "string"
        }
      ],
      "stateMutability": "view",
      "type": "function"
    },
    {
      "inputs": [],
      "name": "nextTokenId",
      "outputs": [
        {
          "internalType": "uint256",
          "name": "",
          "type": "uint256"
        }
      ],
      "stateMutability": "view",
      "type": "function"
    },
    {
      "inputs": [],
      "name": "owner",
      "outputs": [
        {
          "internalType": "address",
          "name": "",
          "type": "address"
        }
      ],
      "stateMutability": "view",
      "type": "function"
    },
    {
      "inputs": [
        {
          "internalType": "uint256",
          "name": "tokenId",
          "type": "uint256"
        }
      ],
      "name": "ownerOf",
      "outputs": [
        {
          "internalType": "address",
          "name": "",
          "type": "address"
        }
      ],
      "stateMutability": "view",
      "type": "function"
    },
    {
      "inputs": [
        {
          "internalType": "uint256",
          "name": "",
          "type": "uint256"
        }
      ],
      "name": "productMetadata",
      "outputs": [
        {
          "internalType": "string",
          "name": "",
          "type": "string"
        }
      ],
      "stateMutability": "view",
      "type": "function"
    },
    {
      "inputs": [],
      "name": "renounceOwnership",
      "outputs": [],
      "stateMutability": "nonpayable",
      "type": "function"
    },
    {
      "inputs": [
        {
          "internalType": "address",
          "name": "from",
          "type": "address"
        },
        {
          "internalType": "address",
          "name": "to",
          "type": "address"
        },
        {
          "internalType": "uint256",
          "name": "tokenId",
          "type": "uint256"
        }
      ],
      "name": "safeTransferFrom",
      "outputs": [],
      "stateMutability": "nonpayable",
      "type": "function"
    },
    {
      "inputs": [
        {
          "internalType": "address",
          "name": "from",
          "type": "address"
        },
        {
          "internalType": "address",
          "name": "to",
          "type": "address"
        },
        {
          "internalType": "uint256",
          "name": "tokenId",
          "type": "uint256"
        },
        {
          "internalType": "bytes",
          "name": "data",
          "type": "bytes"
        }
      ],
      "name": "safeTransferFrom",
      "outputs": [],
      "stateMutability": "nonpayable",
      "type": "function"
    },
    {
      "inputs": [
        {
          "internalType": "address",
          "name": "operator",
          "type": "address"
        },
        {
          "internalType": "bool",
          "name": "approved",
          "type": "bool"
        }
      ],
      "name": "setApprovalForAll",
      "outputs": [],
      "stateMutability": "nonpayable",
      "type": "function"
    },
    {
      "inputs": [
        {
          "internalType": "bytes4",
          "name": "interfaceId",
          "type": "bytes4"
        }
      ],
      "name": "supportsInterface",
      "outputs": [
        {
          "internalType": "bool",
          "name": "",
          "type": "bool"
        }
      ],
      "stateMutability": "view",
      "type": "function"
    },
    {
      "inputs": [],
      "name": "symbol",
      "outputs": [
        {
          "internalType": "string",
          "name": "",
          "type": "string"
        }
      ],
      "stateMutability": "view",
      "type": "function"
    },
    {
      "inputs": [
        {
          "internalType": "uint256",
          "name": "tokenId",
          "type": "uint256"
        }
      ],
      "name": "tokenURI",
      "outputs": [
        {
          "internalType": "string",
          "name": "",
          "type": "string"
        }
      ],
      "stateMutability": "view",
      "type": "function"
    },
    {
      "inputs": [
        {
          "internalType": "address",
          "name": "from",
          "type": "address"
        },
        {
          "internalType": "address",
          "name": "to",
          "type": "address"
        },
        {
          "internalType": "uint256",
          "name": "tokenId",
          "type": "uint256"
        }
      ],
      "name": "transferFrom",
      "outputs": [],
      "stateMutability": "nonpayable",
      "type": "function"
    },
    {
      "inputs": [
        {
          "internalType": "address",
          "name": "newOwner",
          "type": "address"
        }
      ],
      "name": "transferOwnership",
      "outputs": [],
      "stateMutability": "nonpayable",
      "type": "function"
    },
    {
      "inputs": [
        {
          "internalType": "address",
          "name": "to",
          "type": "address"
        },
        {
          "internalType": "uint256",
          "name": "tokenId",
          "type": "uint256"
        }
      ],
      "name": "transferProductNFT",
      "outputs": [],
      "stateMutability": "nonpayable",
      "type": "function"
    },
    {
      "inputs": [
        {
          "internalType": "uint256",
          "name": "tokenId",
          "type": "uint256"
        },
        {
          "internalType": "string",
          "name": "newProductInfo",
          "type": "string"
        }
      ],
      "name": "updateProductNFT",
      "outputs": [],
      "stateMutability": "nonpayable",
      "type": "function"
    }
  ],
  "bytecode": "0x608060405234801561001057600080fd5b50336040518060400160405280600a81526020017f50726f647563744e4654000000000000000000000000000000000000000000008152506040518060400160405280600481526020017f504e465400000000000000000000000000000000000000000000000000000000815250816000908161008d919061043d565b50806001908161009d919061043d565b505050600073ffffffffffffffffffffffffffffffffffffffff168173ffffffffffffffffffffffffffffffffffffffff16036101125760006040517f1e4fbdf70000000000000000000000000000000000000000000000000000000081526004016101099190610550565b60405180910390fd5b6101218161012760201b60201c565b5061056b565b6000600660009054906101000a900473ffffffffffffffffffffffffffffffffffffffff16905081600660006101000a81548173ffffffffffffffffffffffffffffffffffffffff021916908373ffffffffffffffffffffffffffffffffffffffff1602179055508173ffffffffffffffffffffffffffffffffffffffff168173ffffffffffffffffffffffffffffffffffffffff167f8be0079c531659141344cd1fd0a4f28419497f9722a3daafe3b4186f6b6457e060405160405180910390a35050565b600081519050919050565b7f4e487b7100000000000000000000000000000000000000000000000000000000600052604160045260246000fd5b7f4e487b7100000000000000000000000000000000000000000000000000000000600052602260045260246000fd5b6000600282049050600182168061026e57607f821691505b60208210810361028157610280610227565b5b50919050565b60008190508160005260206000209050919050565b60006020601f8301049050919050565b600082821b905092915050565b6000600883026102e97fffffffffffffffffffffffffffffffffffffffffffffffffffffffffffffffff826102ac565b6102f386836102ac565b95508019841693508086168417925050509392505050565b6000819050919050565b6000819050919050565b600061033a6103356103308461030b565b610315565b61030b565b9050919050565b6000819050919050565b6103548361031f565b61036861036082610341565b8484546102b9565b825550505050565b600090565b61037d610370565b61038881848461034b565b505050565b5b818110156103ac576103a1600082610375565b60018101905061038e565b5050565b601f8211156103f1576103c281610287565b6103cb8461029c565b810160208510156103da578190505b6103ee6103e68561029c565b83018261038d565b50505b505050565b600082821c905092915050565b6000610414600019846008026103f6565b1980831691505092915050565b600061042d8383610403565b9150826002028217905092915050565b610446826101ed565b67ffffffffffffffff81111561045f5761045e6101f8565b5b6104698254610256565b6104748282856103b0565b600060209050601f8311600181146104a75760008415610495578287015190505b61049f8582610421565b865550610507565b601f1984166104b586610287565b60005b828110156104dd578489015182556001820191506020850194506020810190506104b8565b868310156104fa57848901516104f6601f891682610403565b8355505b6001600288020188555050505b505050505050565b600073ffffffffffffffffffffffffffffffffffffffff82169050919050565b600061053a8261050f565b9050919050565b61054a8161052f565b82525050565b60006020820190506105656000830184610541565b92915050565b612d0d8061057a6000396000f3fe608060405234801561001057600080fd5b506004361061014d5760003560e01c806370a08231116100c3578063a22cb4651161007c578063a22cb465146103c5578063b88d4fde146103e1578063c87b56dd146103fd578063d208dc691461042d578063e985e9c514610449578063f2fde38b146104795761014d565b806370a0823114610301578063715018a61461033157806375794a3c1461033b578063775cb510146103595780638da5cb5b1461038957806395d89b41146103a75761014d565b80633937d597116101155780633937d597146102085780633f0e4c8a1461023857806342842e0e1461025457806353845509146102705780636352211e146102a05780636813b53b146102d05761014d565b806301ffc9a71461015257806306fdde0314610182578063081812fc146101a0578063095ea7b3146101d057806323b872dd146101ec575b600080fd5b61016c60048036038101906101679190612001565b610495565b6040516101799190612049565b60405180910390f35b61018a610577565b60405161019791906120f4565b60405180910390f35b6101ba60048036038101906101b5919061214c565b610609565b6040516101c791906121ba565b60405180910390f35b6101ea60048036038101906101e59190612201565b610625565b005b61020660048036038101906102019190612241565b61063b565b005b610222600480360381019061021d919061214c565b61073d565b60405161022f9190612049565b60405180910390f35b610252600480360381019061024d9190612201565b61077e565b005b61026e60048036038101906102699190612241565b61086e565b005b61028a6004803603810190610285919061214c565b61088e565b60405161029791906120f4565b60405180910390f35b6102ba60048036038101906102b5919061214c565b61092e565b6040516102c791906121ba565b60405180910390f35b6102ea60048036038101906102e5919061214c565b610940565b6040516102f8929190612294565b60405180910390f35b61031b600480360381019061031691906122c4565b610a6b565b6040516103289190612300565b60405180910390f35b610339610b25565b005b610343610b39565b6040516103509190612300565b60405180910390f35b610373600480360381019061036e9190612450565b610b3f565b6040516103809190612300565b60405180910390f35b610391610bec565b60405161039e91906121ba565b60405180910390f35b6103af610c16565b6040516103bc91906120f4565b60405180910390f35b6103df60048036038101906103da91906124d8565b610ca8565b005b6103fb60048036038101906103f691906125b9565b610cbe565b005b6104176004803603810190610412919061214c565b610ce3565b60405161042491906120f4565b60405180910390f35b6104476004803603810190610442919061263c565b610d4c565b005b610463600480360381019061045e9190612698565b610e1f565b6040516104709190612049565b60405180910390f35b610493600480360381019061048e91906122c4565b610eb3565b005b60007f80ac58cd000000000000000000000000000000000000000000000000000000007bffffffffffffffffffffffffffffffffffffffffffffffffffffffff1916827bffffffffffffffffffffffffffffffffffffffffffffffffffffffff1916148061056057507f5b5e139f000000000000000000000000000000000000000000000000000000007bffffffffffffffffffffffffffffffffffffffffffffffffffffffff1916827bffffffffffffffffffffffffffffffffffffffffffffffffffffffff1916145b80610570575061056f82610f39565b5b9050919050565b60606000805461058690612707565b80601f01602080910402602001604051908101604052809291908181526020018280546105b290612707565b80156105ff5780601f106105d4576101008083540402835291602001916105ff565b820191906000526020600020905b8154815290600101906020018083116105e257829003601f168201915b5050505050905090565b600061061482610fa3565b5061061e8261102b565b9050919050565b6106378282610632611068565b611070565b5050565b600073ffffffffffffffffffffffffffffffffffffffff168273ffffffffffffffffffffffffffffffffffffffff16036106ad5760006040517f64a0ae920000000000000000000000000000000000000000000000000000000081526004016106a491906121ba565b60405180910390fd5b60006106c183836106bc611068565b611082565b90508373ffffffffffffffffffffffffffffffffffffffff168173ffffffffffffffffffffffffffffffffffffffff1614610737578382826040517f64283d7b00000000000000000000000000000000000000000000000000000000815260040161072e93929190612738565b60405180910390fd5b50505050565b60008073ffffffffffffffffffffffffffffffffffffffff1661075f8361129c565b73ffffffffffffffffffffffffffffffffffffffff1614159050919050565b3373ffffffffffffffffffffffffffffffffffffffff1661079e8261092e565b73ffffffffffffffffffffffffffffffffffffffff16146107f4576040517f08c379a00000000000000000000000000000000000000000000000000000000081526004016107eb906127bb565b60405180910390fd5b61080f338383604051806020016040528060008152506112d9565b8173ffffffffffffffffffffffffffffffffffffffff163373ffffffffffffffffffffffffffffffffffffffff16827fcef86d37ba3dc1d682967cde44d8050488734bf53166725b220b4d2e515e9e9360405160405180910390a45050565b61088983838360405180602001604052806000815250610cbe565b505050565b600860205280600052604060002060009150905080546108ad90612707565b80601f01602080910402602001604051908101604052809291908181526020018280546108d990612707565b80156109265780601f106108fb57610100808354040283529160200191610926565b820191906000526020600020905b81548152906001019060200180831161090957829003601f168201915b505050505081565b600061093982610fa3565b9050919050565b606060008073ffffffffffffffffffffffffffffffffffffffff166109648461129c565b73ffffffffffffffffffffffffffffffffffffffff16036109ba576040517f08c379a00000000000000000000000000000000000000000000000000000000081526004016109b190612827565b60405180910390fd5b600860008481526020019081526020016000206109d68461092e565b8180546109e290612707565b80601f0160208091040260200160405190810160405280929190818152602001828054610a0e90612707565b8015610a5b5780601f10610a3057610100808354040283529160200191610a5b565b820191906000526020600020905b815481529060010190602001808311610a3e57829003601f168201915b5050505050915091509150915091565b60008073ffffffffffffffffffffffffffffffffffffffff168273ffffffffffffffffffffffffffffffffffffffff1603610ade5760006040517f89c62b64000000000000000000000000000000000000000000000000000000008152600401610ad591906121ba565b60405180910390fd5b600360008373ffffffffffffffffffffffffffffffffffffffff1673ffffffffffffffffffffffffffffffffffffffff168152602001908152602001600020549050919050565b610b2d6112fe565b610b376000611385565b565b60075481565b6000610b496112fe565b60006007549050610b5a848261144b565b82600860008381526020019081526020016000209081610b7a91906129f3565b508373ffffffffffffffffffffffffffffffffffffffff16817fa77532f709cda752aef1f34d0041c486e2760e3798d55aaafc4f559ef32af54685604051610bc291906120f4565b60405180910390a360076000815480929190610bdd90612af4565b91905055508091505092915050565b6000600660009054906101000a900473ffffffffffffffffffffffffffffffffffffffff16905090565b606060018054610c2590612707565b80601f0160208091040260200160405190810160405280929190818152602001828054610c5190612707565b8015610c9e5780601f10610c7357610100808354040283529160200191610c9e565b820191906000526020600020905b815481529060010190602001808311610c8157829003601f168201915b5050505050905090565b610cba610cb3611068565b8383611469565b5050565b610cc984848461063b565b610cdd610cd4611068565b858585856115d8565b50505050565b6060610cee82610fa3565b506000610cf9611789565b90506000815111610d195760405180602001604052806000815250610d44565b80610d23846117a0565b604051602001610d34929190612b78565b6040516020818303038152906040525b915050919050565b3373ffffffffffffffffffffffffffffffffffffffff16610d6c8361092e565b73ffffffffffffffffffffffffffffffffffffffff1614610dc2576040517f08c379a0000000000000000000000000000000000000000000000000000000008152600401610db9906127bb565b60405180910390fd5b80600860008481526020019081526020016000209081610de291906129f3565b50817fdad7092ee1ca215307c34b5dd865bb1f9be7e1f0110d230eaefd78fa4742903e82604051610e1391906120f4565b60405180910390a25050565b6000600560008473ffffffffffffffffffffffffffffffffffffffff1673ffffffffffffffffffffffffffffffffffffffff16815260200190815260200160002060008373ffffffffffffffffffffffffffffffffffffffff1673ffffffffffffffffffffffffffffffffffffffff16815260200190815260200160002060009054906101000a900460ff16905092915050565b610ebb6112fe565b600073ffffffffffffffffffffffffffffffffffffffff168173ffffffffffffffffffffffffffffffffffffffff1603610f2d5760006040517f1e4fbdf7000000000000000000000000000000000000000000000000000000008152600401610f2491906121ba565b60405180910390fd5b610f3681611385565b50565b60007f01ffc9a7000000000000000000000000000000000000000000000000000000007bffffffffffffffffffffffffffffffffffffffffffffffffffffffff1916827bffffffffffffffffffffffffffffffffffffffffffffffffffffffff1916149050919050565b600080610faf8361129c565b9050600073ffffffffffffffffffffffffffffffffffffffff168173ffffffffffffffffffffffffffffffffffffffff160361102257826040517f7e2732890000000000000000000000000000000000000000000000000000000081526004016110199190612300565b60405180910390fd5b80915050919050565b60006004600083815260200190815260200160002060009054906101000a900473ffffffffffffffffffffffffffffffffffffffff169050919050565b600033905090565b61107d838383600161186e565b505050565b60008061108e8461129c565b9050600073ffffffffffffffffffffffffffffffffffffffff168373ffffffffffffffffffffffffffffffffffffffff16146110d0576110cf818486611a33565b5b600073ffffffffffffffffffffffffffffffffffffffff168173ffffffffffffffffffffffffffffffffffffffff16146111615761111260008560008061186e565b6001600360008373ffffffffffffffffffffffffffffffffffffffff1673ffffffffffffffffffffffffffffffffffffffff168152602001908152602001600020600082825403925050819055505b600073ffffffffffffffffffffffffffffffffffffffff168573ffffffffffffffffffffffffffffffffffffffff16146111e4576001600360008773ffffffffffffffffffffffffffffffffffffffff1673ffffffffffffffffffffffffffffffffffffffff168152602001908152602001600020600082825401925050819055505b846002600086815260200190815260200160002060006101000a81548173ffffffffffffffffffffffffffffffffffffffff021916908373ffffffffffffffffffffffffffffffffffffffff160217905550838573ffffffffffffffffffffffffffffffffffffffff168273ffffffffffffffffffffffffffffffffffffffff167fddf252ad1be2c89b69c2b068fc378daa952ba7f163c4a11628f55a4df523b3ef60405160405180910390a4809150509392505050565b60006002600083815260200190815260200160002060009054906101000a900473ffffffffffffffffffffffffffffffffffffffff169050919050565b6112e4848484611af7565b6112f86112ef611068565b858585856115d8565b50505050565b611306611068565b73ffffffffffffffffffffffffffffffffffffffff16611324610bec565b73ffffffffffffffffffffffffffffffffffffffff161461138357611347611068565b6040517f118cdaa700000000000000000000000000000000000000000000000000000000815260040161137a91906121ba565b60405180910390fd5b565b6000600660009054906101000a900473ffffffffffffffffffffffffffffffffffffffff16905081600660006101000a81548173ffffffffffffffffffffffffffffffffffffffff021916908373ffffffffffffffffffffffffffffffffffffffff1602179055508173ffffffffffffffffffffffffffffffffffffffff168173ffffffffffffffffffffffffffffffffffffffff167f8be0079c531659141344cd1fd0a4f28419497f9722a3daafe3b4186f6b6457e060405160405180910390a35050565b611465828260405180602001604052806000815250611c64565b5050565b600073ffffffffffffffffffffffffffffffffffffffff168273ffffffffffffffffffffffffffffffffffffffff16036114da57816040517f5b08ba180000000000000000000000000000000000000000000000000000000081526004016114d191906121ba565b60405180910390fd5b80600560008573ffffffffffffffffffffffffffffffffffffffff1673ffffffffffffffffffffffffffffffffffffffff16815260200190815260200160002060008473ffffffffffffffffffffffffffffffffffffffff1673ffffffffffffffffffffffffffffffffffffffff16815260200190815260200160002060006101000a81548160ff0219169083151502179055508173ffffffffffffffffffffffffffffffffffffffff168373ffffffffffffffffffffffffffffffffffffffff167f17307eab39ab6107e8899845ad3d59bd9653f200f220920489ca2b5937696c31836040516115cb9190612049565b60405180910390a3505050565b60008373ffffffffffffffffffffffffffffffffffffffff163b1115611782578273ffffffffffffffffffffffffffffffffffffffff1663150b7a02868685856040518563ffffffff1660e01b81526004016116379493929190612bf1565b6020604051808303816000875af192505050801561167357506040513d601f19601f820116820180604052508101906116709190612c52565b60015b6116f7573d80600081146116a3576040519150601f19603f3d011682016040523d82523d6000602084013e6116a8565b606091505b5060008151036116ef57836040517f64a0ae920000000000000000000000000000000000000000000000000000000081526004016116e691906121ba565b60405180910390fd5b805181602001fd5b63150b7a0260e01b7bffffffffffffffffffffffffffffffffffffffffffffffffffffffff1916817bffffffffffffffffffffffffffffffffffffffffffffffffffffffff19161461178057836040517f64a0ae9200000000000000000000000000000000000000000000000000000000815260040161177791906121ba565b60405180910390fd5b505b5050505050565b606060405180602001604052806000815250905090565b6060600060016117af84611c88565b01905060008167ffffffffffffffff8111156117ce576117cd612325565b5b6040519080825280601f01601f1916602001820160405280156118005781602001600182028036833780820191505090505b509050600082602001820190505b600115611863578080600190039150507f3031323334353637383961626364656600000000000000000000000000000000600a86061a8153600a858161185757611856612c7f565b5b0494506000850361180e575b819350505050919050565b80806118a75750600073ffffffffffffffffffffffffffffffffffffffff168273ffffffffffffffffffffffffffffffffffffffff1614155b156119db5760006118b784610fa3565b9050600073ffffffffffffffffffffffffffffffffffffffff168373ffffffffffffffffffffffffffffffffffffffff161415801561192257508273ffffffffffffffffffffffffffffffffffffffff168173ffffffffffffffffffffffffffffffffffffffff1614155b801561193557506119338184610e1f565b155b1561197757826040517fa9fbf51f00000000000000000000000000000000000000000000000000000000815260040161196e91906121ba565b60405180910390fd5b81156119d957838573ffffffffffffffffffffffffffffffffffffffff168273ffffffffffffffffffffffffffffffffffffffff167f8c5be1e5ebec7d5bd14f71427d1e84f3dd0314c0f7b2291e5b200ac8c7c3b92560405160405180910390a45b505b836004600085815260200190815260200160002060006101000a81548173ffffffffffffffffffffffffffffffffffffffff021916908373ffffffffffffffffffffffffffffffffffffffff16021790555050505050565b611a3e838383611ddb565b611af257600073ffffffffffffffffffffffffffffffffffffffff168373ffffffffffffffffffffffffffffffffffffffff1603611ab357806040517f7e273289000000000000000000000000000000000000000000000000000000008152600401611aaa9190612300565b60405180910390fd5b81816040517f177e802f000000000000000000000000000000000000000000000000000000008152600401611ae9929190612cae565b60405180910390fd5b505050565b600073ffffffffffffffffffffffffffffffffffffffff168273ffffffffffffffffffffffffffffffffffffffff1603611b695760006040517f64a0ae92000000000000000000000000000000000000000000000000000000008152600401611b6091906121ba565b60405180910390fd5b6000611b7783836000611082565b9050600073ffffffffffffffffffffffffffffffffffffffff168173ffffffffffffffffffffffffffffffffffffffff1603611bea57816040517f7e273289000000000000000000000000000000000000000000000000000000008152600401611be19190612300565b60405180910390fd5b8373ffffffffffffffffffffffffffffffffffffffff168173ffffffffffffffffffffffffffffffffffffffff1614611c5e578382826040517f64283d7b000000000000000000000000000000000000000000000000000000008152600401611c5593929190612738565b60405180910390fd5b50505050565b611c6e8383611e9c565b611c83611c79611068565b60008585856115d8565b505050565b600080600090507a184f03e93ff9f4daa797ed6e38ed64bf6a1f0100000000000000008310611ce6577a184f03e93ff9f4daa797ed6e38ed64bf6a1f0100000000000000008381611cdc57611cdb612c7f565b5b0492506040810190505b6d04ee2d6d415b85acef81000000008310611d23576d04ee2d6d415b85acef81000000008381611d1957611d18612c7f565b5b0492506020810190505b662386f26fc100008310611d5257662386f26fc100008381611d4857611d47612c7f565b5b0492506010810190505b6305f5e1008310611d7b576305f5e1008381611d7157611d70612c7f565b5b0492506008810190505b6127108310611da0576127108381611d9657611d95612c7f565b5b0492506004810190505b60648310611dc35760648381611db957611db8612c7f565b5b0492506002810190505b600a8310611dd2576001810190505b80915050919050565b60008073ffffffffffffffffffffffffffffffffffffffff168373ffffffffffffffffffffffffffffffffffffffff1614158015611e9357508273ffffffffffffffffffffffffffffffffffffffff168473ffffffffffffffffffffffffffffffffffffffff161480611e545750611e538484610e1f565b5b80611e9257508273ffffffffffffffffffffffffffffffffffffffff16611e7a8361102b565b73ffffffffffffffffffffffffffffffffffffffff16145b5b90509392505050565b600073ffffffffffffffffffffffffffffffffffffffff168273ffffffffffffffffffffffffffffffffffffffff1603611f0e5760006040517f64a0ae92000000000000000000000000000000000000000000000000000000008152600401611f0591906121ba565b60405180910390fd5b6000611f1c83836000611082565b9050600073ffffffffffffffffffffffffffffffffffffffff168173ffffffffffffffffffffffffffffffffffffffff1614611f905760006040517f73c6ac6e000000000000000000000000000000000000000000000000000000008152600401611f8791906121ba565b60405180910390fd5b505050565b6000604051905090565b600080fd5b600080fd5b60007fffffffff0000000000000000000000000000000000000000000000000000000082169050919050565b611fde81611fa9565b8114611fe957600080fd5b50565b600081359050611ffb81611fd5565b92915050565b60006020828403121561201757612016611f9f565b5b600061202584828501611fec565b91505092915050565b60008115159050919050565b6120438161202e565b82525050565b600060208201905061205e600083018461203a565b92915050565b600081519050919050565b600082825260208201905092915050565b60005b8381101561209e578082015181840152602081019050612083565b60008484015250505050565b6000601f19601f8301169050919050565b60006120c682612064565b6120d0818561206f565b93506120e0818560208601612080565b6120e9816120aa565b840191505092915050565b6000602082019050818103600083015261210e81846120bb565b905092915050565b6000819050919050565b61212981612116565b811461213457600080fd5b50565b60008135905061214681612120565b92915050565b60006020828403121561216257612161611f9f565b5b600061217084828501612137565b91505092915050565b600073ffffffffffffffffffffffffffffffffffffffff82169050919050565b60006121a482612179565b9050919050565b6121b481612199565b82525050565b60006020820190506121cf60008301846121ab565b92915050565b6121de81612199565b81146121e957600080fd5b50565b6000813590506121fb816121d5565b92915050565b6000806040838503121561221857612217611f9f565b5b6000612226858286016121ec565b925050602061223785828601612137565b9150509250929050565b60008060006060848603121561225a57612259611f9f565b5b6000612268868287016121ec565b9350506020612279868287016121ec565b925050604061228a86828701612137565b9150509250925092565b600060408201905081810360008301526122ae81856120bb565b90506122bd60208301846121ab565b9392505050565b6000602082840312156122da576122d9611f9f565b5b60006122e8848285016121ec565b91505092915050565b6122fa81612116565b82525050565b600060208201905061231560008301846122f1565b92915050565b600080fd5b600080fd5b7f4e487b7100000000000000000000000000000000000000000000000000000000600052604160045260246000fd5b61235d826120aa565b810181811067ffffffffffffffff8211171561237c5761237b612325565b5b80604052505050565b600061238f611f95565b905061239b8282612354565b919050565b600067ffffffffffffffff8211156123bb576123ba612325565b5b6123c4826120aa565b9050602081019050919050565b82818337600083830152505050565b60006123f36123ee846123a0565b612385565b90508281526020810184848401111561240f5761240e612320565b5b61241a8482856123d1565b509392505050565b600082601f8301126124375761243661231b565b5b81356124478482602086016123e0565b91505092915050565b6000806040838503121561246757612466611f9f565b5b6000612475858286016121ec565b925050602083013567ffffffffffffffff81111561249657612495611fa4565b5b6124a285828601612422565b9150509250929050565b6124b58161202e565b81146124c057600080fd5b50565b6000813590506124d2816124ac565b92915050565b600080604083850312156124ef576124ee611f9f565b5b60006124fd858286016121ec565b925050602061250e858286016124c3565b9150509250929050565b600067ffffffffffffffff82111561253357612532612325565b5b61253c826120aa565b9050602081019050919050565b600061255c61255784612518565b612385565b90508281526020810184848401111561257857612577612320565b5b6125838482856123d1565b509392505050565b600082601f8301126125a05761259f61231b565b5b81356125b0848260208601612549565b91505092915050565b600080600080608085870312156125d3576125d2611f9f565b5b60006125e1878288016121ec565b94505060206125f2878288016121ec565b935050604061260387828801612137565b925050606085013567ffffffffffffffff81111561262457612623611fa4565b5b6126308782880161258b565b91505092959194509250565b6000806040838503121561265357612652611f9f565b5b600061266185828601612137565b925050602083013567ffffffffffffffff81111561268257612681611fa4565b5b61268e85828601612422565b9150509250929050565b600080604083850312156126af576126ae611f9f565b5b60006126bd858286016121ec565b92505060206126ce858286016121ec565b9150509250929050565b7f4e487b7100000000000000000000000000000000000000000000000000000000600052602260045260246000fd5b6000600282049050600182168061271f57607f821691505b602082108103612732576127316126d8565b5b50919050565b600060608201905061274d60008301866121ab565b61275a60208301856122f1565b61276760408301846121ab565b949350505050565b7f4e6f7420746865206f776e6572206f662074686973204e465400000000000000600082015250565b60006127a560198361206f565b91506127b08261276f565b602082019050919050565b600060208201905081810360008301526127d481612798565b9050919050565b7f546f6b656e20646f6573206e6f74206578697374000000000000000000000000600082015250565b600061281160148361206f565b915061281c826127db565b602082019050919050565b6000602082019050818103600083015261284081612804565b9050919050565b60008190508160005260206000209050919050565b60006020601f8301049050919050565b600082821b905092915050565b6000600883026128a97fffffffffffffffffffffffffffffffffffffffffffffffffffffffffffffffff8261286c565b6128b3868361286c565b95508019841693508086168417925050509392505050565b6000819050919050565b60006128f06128eb6128e684612116565b6128cb565b612116565b9050919050565b6000819050919050565b61290a836128d5565b61291e612916826128f7565b848454612879565b825550505050565b600090565b612933612926565b61293e818484612901565b505050565b5b818110156129625761295760008261292b565b600181019050612944565b5050565b601f8211156129a75761297881612847565b6129818461285c565b81016020851015612990578190505b6129a461299c8561285c565b830182612943565b50505b505050565b600082821c905092915050565b60006129ca600019846008026129ac565b1980831691505092915050565b60006129e383836129b9565b9150826002028217905092915050565b6129fc82612064565b67ffffffffffffffff811115612a1557612a14612325565b5b612a1f8254612707565b612a2a828285612966565b600060209050601f831160018114612a5d5760008415612a4b578287015190505b612a5585826129d7565b865550612abd565b601f198416612a6b86612847565b60005b82811015612a9357848901518255600182019150602085019450602081019050612a6e565b86831015612ab05784890151612aac601f8916826129b9565b8355505b6001600288020188555050505b505050505050565b7f4e487b7100000000000000000000000000000000000000000000000000000000600052601160045260246000fd5b6000612aff82612116565b91507fffffffffffffffffffffffffffffffffffffffffffffffffffffffffffffffff8203612b3157612b30612ac5565b5b600182019050919050565b600081905092915050565b6000612b5282612064565b612b5c8185612b3c565b9350612b6c818560208601612080565b80840191505092915050565b6000612b848285612b47565b9150612b908284612b47565b91508190509392505050565b600081519050919050565b600082825260208201905092915050565b6000612bc382612b9c565b612bcd8185612ba7565b9350612bdd818560208601612080565b612be6816120aa565b840191505092915050565b6000608082019050612c0660008301876121ab565b612c1360208301866121ab565b612c2060408301856122f1565b8181036060830152612c328184612bb8565b905095945050505050565b600081519050612c4c81611fd5565b92915050565b600060208284031215612c6857612c67611f9f565b5b6000612c7684828501612c3d565b91505092915050565b7f4e487b7100000000000000000000000000000000000000000000000000000000600052601260045260246000fd5b6000604082019050612cc360008301856121ab565b612cd060208301846122f1565b939250505056fea2646970667358221220a4e60af9d1c66eb182e8d813e6641c9bcd11880e1d11dbe75f0ccc943807425464736f6c634300081c0033",
  "linkReferences": {},
  "deployedLinkReferences": {}
}