{
  "_format": "hh-sol-artifact-1",
  "contractName": "ProductTracking",
  "sourceName": "contracts/ProductTracking.sol",
  "abi": [
    {
      "inputs": [],
      "stateMutability": "nonpayable",
      "type": "constructor"
    },
    {
      "inputs": [
        {
          "internalType": "address",
          "name": "sender",
          "type": "address"
        },
        {
          "internalType": "uint256",
          "name": "tokenId",
          "type": "uint256"
        },
        {
          "internalType": "address",
          "name": "owner",
          "type": "address"
        }
      ],
      "name": "ERC721IncorrectOwner",
      "type": "error"
    },
    {
      "inputs": [
        {
          "internalType": "address",
          "name": "operator",
          "type": "address"
        },
        {
          "internalType": "uint256",
          "name": "tokenId",
          "type": "uint256"
        }
      ],
      "name": "ERC721InsufficientApproval",
      "type": "error"
    },
    {
      "inputs": [
        {
          "internalType": "address",
          "name": "approver",
          "type": "address"
        }
      ],
      "name": "ERC721InvalidApprover",
      "type": "error"
    },
    {
      "inputs": [
        {
          "internalType": "address",
          "name": "operator",
          "type": "address"
        }
      ],
      "name": "ERC721InvalidOperator",
      "type": "error"
    },
    {
      "inputs": [
        {
          "internalType": "address",
          "name": "owner",
          "type": "address"
        }
      ],
      "name": "ERC721InvalidOwner",
      "type": "error"
    },
    {
      "inputs": [
        {
          "internalType": "address",
          "name": "receiver",
          "type": "address"
        }
      ],
      "name": "ERC721InvalidReceiver",
      "type": "error"
    },
    {
      "inputs": [
        {
          "internalType": "address",
          "name": "sender",
          "type": "address"
        }
      ],
      "name": "ERC721InvalidSender",
      "type": "error"
    },
    {
      "inputs": [
        {
          "internalType": "uint256",
          "name": "tokenId",
          "type": "uint256"
        }
      ],
      "name": "ERC721NonexistentToken",
      "type": "error"
    },
    {
      "inputs": [
        {
          "internalType": "address",
          "name": "owner",
          "type": "address"
        }
      ],
      "name": "OwnableInvalidOwner",
      "type": "error"
    },
    {
      "inputs": [
        {
          "internalType": "address",
          "name": "account",
          "type": "address"
        }
      ],
      "name": "OwnableUnauthorizedAccount",
      "type": "error"
    },
    {
      "anonymous": false,
      "inputs": [
        {
          "indexed": true,
          "internalType": "address",
          "name": "owner",
          "type": "address"
        },
        {
          "indexed": true,
          "internalType": "address",
          "name": "approved",
          "type": "address"
        },
        {
          "indexed": true,
          "internalType": "uint256",
          "name": "tokenId",
          "type": "uint256"
        }
      ],
      "name": "Approval",
      "type": "event"
    },
    {
      "anonymous": false,
      "inputs": [
        {
          "indexed": true,
          "internalType": "address",
          "name": "owner",
          "type": "address"
        },
        {
          "indexed": true,
          "internalType": "address",
          "name": "operator",
          "type": "address"
        },
        {
          "indexed": false,
          "internalType": "bool",
          "name": "approved",
          "type": "bool"
        }
      ],
      "name": "ApprovalForAll",
      "type": "event"
    },
    {
      "anonymous": false,
      "inputs": [
        {
          "indexed": true,
          "internalType": "address",
          "name": "previousOwner",
          "type": "address"
        },
        {
          "indexed": true,
          "internalType": "address",
          "name": "newOwner",
          "type": "address"
        }
      ],
      "name": "OwnershipTransferred",
      "type": "event"
    },
    {
      "anonymous": false,
      "inputs": [
        {
          "indexed": true,
          "internalType": "address",
          "name": "from",
          "type": "address"
        },
        {
          "indexed": true,
          "internalType": "address",
          "name": "to",
          "type": "address"
        },
        {
          "indexed": true,
          "internalType": "uint256",
          "name": "tokenId",
          "type": "uint256"
        }
      ],
      "name": "Transfer",
      "type": "event"
    },
    {
      "inputs": [
        {
          "internalType": "address",
          "name": "to",
          "type": "address"
        },
        {
          "internalType": "uint256",
          "name": "tokenId",
          "type": "uint256"
        }
      ],
      "name": "approve",
      "outputs": [],
      "stateMutability": "nonpayable",
      "type": "function"
    },
    {
      "inputs": [
        {
          "internalType": "address",
          "name": "owner",
          "type": "address"
        }
      ],
      "name": "balanceOf",
      "outputs": [
        {
          "internalType": "uint256",
          "name": "",
          "type": "uint256"
        }
      ],
      "stateMutability": "view",
      "type": "function"
    },
    {
      "inputs": [
        {
          "internalType": "uint256",
          "name": "tokenId",
          "type": "uint256"
        }
      ],
      "name": "getApproved",
      "outputs": [
        {
          "internalType": "address",
          "name": "",
          "type": "address"
        }
      ],
      "stateMutability": "view",
      "type": "function"
    },
    {
      "inputs": [
        {
          "internalType": "uint256",
          "name": "tokenId",
          "type": "uint256"
        }
      ],
      "name": "getProductDetails",
      "outputs": [
        {
          "internalType": "string",
          "name": "",
          "type": "string"
        }
      ],
      "stateMutability": "view",
      "type": "function"
    },
    {
      "inputs": [
        {
          "internalType": "address",
          "name": "owner",
          "type": "address"
        },
        {
          "internalType": "address",
          "name": "operator",
          "type": "address"
        }
      ],
      "name": "isApprovedForAll",
      "outputs": [
        {
          "internalType": "bool",
          "name": "",
          "type": "bool"
        }
      ],
      "stateMutability": "view",
      "type": "function"
    },
    {
      "inputs": [
        {
          "internalType": "address",
          "name": "recipient",
          "type": "address"
        },
        {
          "internalType": "string",
          "name": "productInfo",
          "type": "string"
        }
      ],
      "name": "mintProductNFT",
      "outputs": [],
      "stateMutability": "nonpayable",
      "type": "function"
    },
    {
      "inputs": [],
      "name": "name",
      "outputs": [
        {
          "internalType": "string",
          "name": "",
          "type": "string"
        }
      ],
      "stateMutability": "view",
      "type": "function"
    },
    {
      "inputs": [],
      "name": "nextTokenId",
      "outputs": [
        {
          "internalType": "uint256",
          "name": "",
          "type": "uint256"
        }
      ],
      "stateMutability": "view",
      "type": "function"
    },
    {
      "inputs": [],
      "name": "owner",
      "outputs": [
        {
          "internalType": "address",
          "name": "",
          "type": "address"
        }
      ],
      "stateMutability": "view",
      "type": "function"
    },
    {
      "inputs": [
        {
          "internalType": "uint256",
          "name": "tokenId",
          "type": "uint256"
        }
      ],
      "name": "ownerOf",
      "outputs": [
        {
          "internalType": "address",
          "name": "",
          "type": "address"
        }
      ],
      "stateMutability": "view",
      "type": "function"
    },
    {
      "inputs": [
        {
          "internalType": "uint256",
          "name": "",
          "type": "uint256"
        }
      ],
      "name": "productMetadata",
      "outputs": [
        {
          "internalType": "string",
          "name": "",
          "type": "string"
        }
      ],
      "stateMutability": "view",
      "type": "function"
    },
    {
      "inputs": [],
      "name": "renounceOwnership",
      "outputs": [],
      "stateMutability": "nonpayable",
      "type": "function"
    },
    {
      "inputs": [
        {
          "internalType": "address",
          "name": "from",
          "type": "address"
        },
        {
          "internalType": "address",
          "name": "to",
          "type": "address"
        },
        {
          "internalType": "uint256",
          "name": "tokenId",
          "type": "uint256"
        }
      ],
      "name": "safeTransferFrom",
      "outputs": [],
      "stateMutability": "nonpayable",
      "type": "function"
    },
    {
      "inputs": [
        {
          "internalType": "address",
          "name": "from",
          "type": "address"
        },
        {
          "internalType": "address",
          "name": "to",
          "type": "address"
        },
        {
          "internalType": "uint256",
          "name": "tokenId",
          "type": "uint256"
        },
        {
          "internalType": "bytes",
          "name": "data",
          "type": "bytes"
        }
      ],
      "name": "safeTransferFrom",
      "outputs": [],
      "stateMutability": "nonpayable",
      "type": "function"
    },
    {
      "inputs": [
        {
          "internalType": "address",
          "name": "operator",
          "type": "address"
        },
        {
          "internalType": "bool",
          "name": "approved",
          "type": "bool"
        }
      ],
      "name": "setApprovalForAll",
      "outputs": [],
      "stateMutability": "nonpayable",
      "type": "function"
    },
    {
      "inputs": [
        {
          "internalType": "bytes4",
          "name": "interfaceId",
          "type": "bytes4"
        }
      ],
      "name": "supportsInterface",
      "outputs": [
        {
          "internalType": "bool",
          "name": "",
          "type": "bool"
        }
      ],
      "stateMutability": "view",
      "type": "function"
    },
    {
      "inputs": [],
      "name": "symbol",
      "outputs": [
        {
          "internalType": "string",
          "name": "",
          "type": "string"
        }
      ],
      "stateMutability": "view",
      "type": "function"
    },
    {
      "inputs": [
        {
          "internalType": "uint256",
          "name": "tokenId",
          "type": "uint256"
        }
      ],
      "name": "tokenURI",
      "outputs": [
        {
          "internalType": "string",
          "name": "",
          "type": "string"
        }
      ],
      "stateMutability": "view",
      "type": "function"
    },
    {
      "inputs": [
        {
          "internalType": "address",
          "name": "from",
          "type": "address"
        },
        {
          "internalType": "address",
          "name": "to",
          "type": "address"
        },
        {
          "internalType": "uint256",
          "name": "tokenId",
          "type": "uint256"
        }
      ],
      "name": "transferFrom",
      "outputs": [],
      "stateMutability": "nonpayable",
      "type": "function"
    },
    {
      "inputs": [
        {
          "internalType": "address",
          "name": "newOwner",
          "type": "address"
        }
      ],
      "name": "transferOwnership",
      "outputs": [],
      "stateMutability": "nonpayable",
      "type": "function"
    }
  ],
  "bytecode": "0x608060405234801561001057600080fd5b50336040518060400160405280600a81526020017f50726f647563744e4654000000000000000000000000000000000000000000008152506040518060400160405280600481526020017f504e465400000000000000000000000000000000000000000000000000000000815250816000908161008d919061043d565b50806001908161009d919061043d565b505050600073ffffffffffffffffffffffffffffffffffffffff168173ffffffffffffffffffffffffffffffffffffffff16036101125760006040517f1e4fbdf70000000000000000000000000000000000000000000000000000000081526004016101099190610550565b60405180910390fd5b6101218161012760201b60201c565b5061056b565b6000600660009054906101000a900473ffffffffffffffffffffffffffffffffffffffff16905081600660006101000a81548173ffffffffffffffffffffffffffffffffffffffff021916908373ffffffffffffffffffffffffffffffffffffffff1602179055508173ffffffffffffffffffffffffffffffffffffffff168173ffffffffffffffffffffffffffffffffffffffff167f8be0079c531659141344cd1fd0a4f28419497f9722a3daafe3b4186f6b6457e060405160405180910390a35050565b600081519050919050565b7f4e487b7100000000000000000000000000000000000000000000000000000000600052604160045260246000fd5b7f4e487b7100000000000000000000000000000000000000000000000000000000600052602260045260246000fd5b6000600282049050600182168061026e57607f821691505b60208210810361028157610280610227565b5b50919050565b60008190508160005260206000209050919050565b60006020601f8301049050919050565b600082821b905092915050565b6000600883026102e97fffffffffffffffffffffffffffffffffffffffffffffffffffffffffffffffff826102ac565b6102f386836102ac565b95508019841693508086168417925050509392505050565b6000819050919050565b6000819050919050565b600061033a6103356103308461030b565b610315565b61030b565b9050919050565b6000819050919050565b6103548361031f565b61036861036082610341565b8484546102b9565b825550505050565b600090565b61037d610370565b61038881848461034b565b505050565b5b818110156103ac576103a1600082610375565b60018101905061038e565b5050565b601f8211156103f1576103c281610287565b6103cb8461029c565b810160208510156103da578190505b6103ee6103e68561029c565b83018261038d565b50505b505050565b600082821c905092915050565b6000610414600019846008026103f6565b1980831691505092915050565b600061042d8383610403565b9150826002028217905092915050565b610446826101ed565b67ffffffffffffffff81111561045f5761045e6101f8565b5b6104698254610256565b6104748282856103b0565b600060209050601f8311600181146104a75760008415610495578287015190505b61049f8582610421565b865550610507565b601f1984166104b586610287565b60005b828110156104dd578489015182556001820191506020850194506020810190506104b8565b868310156104fa57848901516104f6601f891682610403565b8355505b6001600288020188555050505b505050505050565b600073ffffffffffffffffffffffffffffffffffffffff82169050919050565b600061053a8261050f565b9050919050565b61054a8161052f565b82525050565b60006020820190506105656000830184610541565b92915050565b6126998061057a6000396000f3fe608060405234801561001057600080fd5b506004361061012c5760003560e01c8063715018a6116100ad578063a22cb46511610071578063a22cb46514610343578063b88d4fde1461035f578063c87b56dd1461037b578063e985e9c5146103ab578063f2fde38b146103db5761012c565b8063715018a6146102c357806375794a3c146102cd578063775cb510146102eb5780638da5cb5b1461030757806395d89b41146103255761012c565b806342842e0e116100f457806342842e0e146101e757806353845509146102035780636352211e146102335780636813b53b1461026357806370a08231146102935761012c565b806301ffc9a71461013157806306fdde0314610161578063081812fc1461017f578063095ea7b3146101af57806323b872dd146101cb575b600080fd5b61014b60048036038101906101469190611af1565b6103f7565b6040516101589190611b39565b60405180910390f35b6101696104d9565b6040516101769190611be4565b60405180910390f35b61019960048036038101906101949190611c3c565b61056b565b6040516101a69190611caa565b60405180910390f35b6101c960048036038101906101c49190611cf1565b610587565b005b6101e560048036038101906101e09190611d31565b61059d565b005b61020160048036038101906101fc9190611d31565b61069f565b005b61021d60048036038101906102189190611c3c565b6106bf565b60405161022a9190611be4565b60405180910390f35b61024d60048036038101906102489190611c3c565b61075f565b60405161025a9190611caa565b60405180910390f35b61027d60048036038101906102789190611c3c565b610771565b60405161028a9190611be4565b60405180910390f35b6102ad60048036038101906102a89190611d84565b610816565b6040516102ba9190611dc0565b60405180910390f35b6102cb6108d0565b005b6102d56108e4565b6040516102e29190611dc0565b60405180910390f35b61030560048036038101906103009190611f10565b6108ea565b005b61030f610941565b60405161031c9190611caa565b60405180910390f35b61032d61096b565b60405161033a9190611be4565b60405180910390f35b61035d60048036038101906103589190611f98565b6109fd565b005b61037960048036038101906103749190612079565b610a13565b005b61039560048036038101906103909190611c3c565b610a38565b6040516103a29190611be4565b60405180910390f35b6103c560048036038101906103c091906120fc565b610aa1565b6040516103d29190611b39565b60405180910390f35b6103f560048036038101906103f09190611d84565b610b35565b005b60007f80ac58cd000000000000000000000000000000000000000000000000000000007bffffffffffffffffffffffffffffffffffffffffffffffffffffffff1916827bffffffffffffffffffffffffffffffffffffffffffffffffffffffff191614806104c257507f5b5e139f000000000000000000000000000000000000000000000000000000007bffffffffffffffffffffffffffffffffffffffffffffffffffffffff1916827bffffffffffffffffffffffffffffffffffffffffffffffffffffffff1916145b806104d257506104d182610bbb565b5b9050919050565b6060600080546104e89061216b565b80601f01602080910402602001604051908101604052809291908181526020018280546105149061216b565b80156105615780601f1061053657610100808354040283529160200191610561565b820191906000526020600020905b81548152906001019060200180831161054457829003601f168201915b5050505050905090565b600061057682610c25565b5061058082610cad565b9050919050565b6105998282610594610cea565b610cf2565b5050565b600073ffffffffffffffffffffffffffffffffffffffff168273ffffffffffffffffffffffffffffffffffffffff160361060f5760006040517f64a0ae920000000000000000000000000000000000000000000000000000000081526004016106069190611caa565b60405180910390fd5b6000610623838361061e610cea565b610d04565b90508373ffffffffffffffffffffffffffffffffffffffff168173ffffffffffffffffffffffffffffffffffffffff1614610699578382826040517f64283d7b0000000000000000000000000000000000000000000000000000000081526004016106909392919061219c565b60405180910390fd5b50505050565b6106ba83838360405180602001604052806000815250610a13565b505050565b600860205280600052604060002060009150905080546106de9061216b565b80601f016020809104026020016040519081016040528092919081815260200182805461070a9061216b565b80156107575780601f1061072c57610100808354040283529160200191610757565b820191906000526020600020905b81548152906001019060200180831161073a57829003601f168201915b505050505081565b600061076a82610c25565b9050919050565b60606008600083815260200190815260200160002080546107919061216b565b80601f01602080910402602001604051908101604052809291908181526020018280546107bd9061216b565b801561080a5780601f106107df5761010080835404028352916020019161080a565b820191906000526020600020905b8154815290600101906020018083116107ed57829003601f168201915b50505050509050919050565b60008073ffffffffffffffffffffffffffffffffffffffff168273ffffffffffffffffffffffffffffffffffffffff16036108895760006040517f89c62b640000000000000000000000000000000000000000000000000000000081526004016108809190611caa565b60405180910390fd5b600360008373ffffffffffffffffffffffffffffffffffffffff1673ffffffffffffffffffffffffffffffffffffffff168152602001908152602001600020549050919050565b6108d8610f1e565b6108e26000610fa5565b565b60075481565b6108f2610f1e565b60006007549050610903838261106b565b81600860008381526020019081526020016000209081610923919061237f565b506007600081548092919061093790612480565b9190505550505050565b6000600660009054906101000a900473ffffffffffffffffffffffffffffffffffffffff16905090565b60606001805461097a9061216b565b80601f01602080910402602001604051908101604052809291908181526020018280546109a69061216b565b80156109f35780601f106109c8576101008083540402835291602001916109f3565b820191906000526020600020905b8154815290600101906020018083116109d657829003601f168201915b5050505050905090565b610a0f610a08610cea565b8383611089565b5050565b610a1e84848461059d565b610a32610a29610cea565b858585856111f8565b50505050565b6060610a4382610c25565b506000610a4e6113a9565b90506000815111610a6e5760405180602001604052806000815250610a99565b80610a78846113c0565b604051602001610a89929190612504565b6040516020818303038152906040525b915050919050565b6000600560008473ffffffffffffffffffffffffffffffffffffffff1673ffffffffffffffffffffffffffffffffffffffff16815260200190815260200160002060008373ffffffffffffffffffffffffffffffffffffffff1673ffffffffffffffffffffffffffffffffffffffff16815260200190815260200160002060009054906101000a900460ff16905092915050565b610b3d610f1e565b600073ffffffffffffffffffffffffffffffffffffffff168173ffffffffffffffffffffffffffffffffffffffff1603610baf5760006040517f1e4fbdf7000000000000000000000000000000000000000000000000000000008152600401610ba69190611caa565b60405180910390fd5b610bb881610fa5565b50565b60007f01ffc9a7000000000000000000000000000000000000000000000000000000007bffffffffffffffffffffffffffffffffffffffffffffffffffffffff1916827bffffffffffffffffffffffffffffffffffffffffffffffffffffffff1916149050919050565b600080610c318361148e565b9050600073ffffffffffffffffffffffffffffffffffffffff168173ffffffffffffffffffffffffffffffffffffffff1603610ca457826040517f7e273289000000000000000000000000000000000000000000000000000000008152600401610c9b9190611dc0565b60405180910390fd5b80915050919050565b60006004600083815260200190815260200160002060009054906101000a900473ffffffffffffffffffffffffffffffffffffffff169050919050565b600033905090565b610cff83838360016114cb565b505050565b600080610d108461148e565b9050600073ffffffffffffffffffffffffffffffffffffffff168373ffffffffffffffffffffffffffffffffffffffff1614610d5257610d51818486611690565b5b600073ffffffffffffffffffffffffffffffffffffffff168173ffffffffffffffffffffffffffffffffffffffff1614610de357610d946000856000806114cb565b6001600360008373ffffffffffffffffffffffffffffffffffffffff1673ffffffffffffffffffffffffffffffffffffffff168152602001908152602001600020600082825403925050819055505b600073ffffffffffffffffffffffffffffffffffffffff168573ffffffffffffffffffffffffffffffffffffffff1614610e66576001600360008773ffffffffffffffffffffffffffffffffffffffff1673ffffffffffffffffffffffffffffffffffffffff168152602001908152602001600020600082825401925050819055505b846002600086815260200190815260200160002060006101000a81548173ffffffffffffffffffffffffffffffffffffffff021916908373ffffffffffffffffffffffffffffffffffffffff160217905550838573ffffffffffffffffffffffffffffffffffffffff168273ffffffffffffffffffffffffffffffffffffffff167fddf252ad1be2c89b69c2b068fc378daa952ba7f163c4a11628f55a4df523b3ef60405160405180910390a4809150509392505050565b610f26610cea565b73ffffffffffffffffffffffffffffffffffffffff16610f44610941565b73ffffffffffffffffffffffffffffffffffffffff1614610fa357610f67610cea565b6040517f118cdaa7000000000000000000000000000000000000000000000000000000008152600401610f9a9190611caa565b60405180910390fd5b565b6000600660009054906101000a900473ffffffffffffffffffffffffffffffffffffffff16905081600660006101000a81548173ffffffffffffffffffffffffffffffffffffffff021916908373ffffffffffffffffffffffffffffffffffffffff1602179055508173ffffffffffffffffffffffffffffffffffffffff168173ffffffffffffffffffffffffffffffffffffffff167f8be0079c531659141344cd1fd0a4f28419497f9722a3daafe3b4186f6b6457e060405160405180910390a35050565b611085828260405180602001604052806000815250611754565b5050565b600073ffffffffffffffffffffffffffffffffffffffff168273ffffffffffffffffffffffffffffffffffffffff16036110fa57816040517f5b08ba180000000000000000000000000000000000000000000000000000000081526004016110f19190611caa565b60405180910390fd5b80600560008573ffffffffffffffffffffffffffffffffffffffff1673ffffffffffffffffffffffffffffffffffffffff16815260200190815260200160002060008473ffffffffffffffffffffffffffffffffffffffff1673ffffffffffffffffffffffffffffffffffffffff16815260200190815260200160002060006101000a81548160ff0219169083151502179055508173ffffffffffffffffffffffffffffffffffffffff168373ffffffffffffffffffffffffffffffffffffffff167f17307eab39ab6107e8899845ad3d59bd9653f200f220920489ca2b5937696c31836040516111eb9190611b39565b60405180910390a3505050565b60008373ffffffffffffffffffffffffffffffffffffffff163b11156113a2578273ffffffffffffffffffffffffffffffffffffffff1663150b7a02868685856040518563ffffffff1660e01b8152600401611257949392919061257d565b6020604051808303816000875af192505050801561129357506040513d601f19601f8201168201806040525081019061129091906125de565b60015b611317573d80600081146112c3576040519150601f19603f3d011682016040523d82523d6000602084013e6112c8565b606091505b50600081510361130f57836040517f64a0ae920000000000000000000000000000000000000000000000000000000081526004016113069190611caa565b60405180910390fd5b805181602001fd5b63150b7a0260e01b7bffffffffffffffffffffffffffffffffffffffffffffffffffffffff1916817bffffffffffffffffffffffffffffffffffffffffffffffffffffffff1916146113a057836040517f64a0ae920000000000000000000000000000000000000000000000000000000081526004016113979190611caa565b60405180910390fd5b505b5050505050565b606060405180602001604052806000815250905090565b6060600060016113cf84611778565b01905060008167ffffffffffffffff8111156113ee576113ed611de5565b5b6040519080825280601f01601f1916602001820160405280156114205781602001600182028036833780820191505090505b509050600082602001820190505b600115611483578080600190039150507f3031323334353637383961626364656600000000000000000000000000000000600a86061a8153600a85816114775761147661260b565b5b0494506000850361142e575b819350505050919050565b60006002600083815260200190815260200160002060009054906101000a900473ffffffffffffffffffffffffffffffffffffffff169050919050565b80806115045750600073ffffffffffffffffffffffffffffffffffffffff168273ffffffffffffffffffffffffffffffffffffffff1614155b1561163857600061151484610c25565b9050600073ffffffffffffffffffffffffffffffffffffffff168373ffffffffffffffffffffffffffffffffffffffff161415801561157f57508273ffffffffffffffffffffffffffffffffffffffff168173ffffffffffffffffffffffffffffffffffffffff1614155b801561159257506115908184610aa1565b155b156115d457826040517fa9fbf51f0000000000000000000000000000000000000000000000000000000081526004016115cb9190611caa565b60405180910390fd5b811561163657838573ffffffffffffffffffffffffffffffffffffffff168273ffffffffffffffffffffffffffffffffffffffff167f8c5be1e5ebec7d5bd14f71427d1e84f3dd0314c0f7b2291e5b200ac8c7c3b92560405160405180910390a45b505b836004600085815260200190815260200160002060006101000a81548173ffffffffffffffffffffffffffffffffffffffff021916908373ffffffffffffffffffffffffffffffffffffffff16021790555050505050565b61169b8383836118cb565b61174f57600073ffffffffffffffffffffffffffffffffffffffff168373ffffffffffffffffffffffffffffffffffffffff160361171057806040517f7e2732890000000000000000000000000000000000000000000000000000000081526004016117079190611dc0565b60405180910390fd5b81816040517f177e802f00000000000000000000000000000000000000000000000000000000815260040161174692919061263a565b60405180910390fd5b505050565b61175e838361198c565b611773611769610cea565b60008585856111f8565b505050565b600080600090507a184f03e93ff9f4daa797ed6e38ed64bf6a1f01000000000000000083106117d6577a184f03e93ff9f4daa797ed6e38ed64bf6a1f01000000000000000083816117cc576117cb61260b565b5b0492506040810190505b6d04ee2d6d415b85acef81000000008310611813576d04ee2d6d415b85acef810000000083816118095761180861260b565b5b0492506020810190505b662386f26fc10000831061184257662386f26fc1000083816118385761183761260b565b5b0492506010810190505b6305f5e100831061186b576305f5e10083816118615761186061260b565b5b0492506008810190505b61271083106118905761271083816118865761188561260b565b5b0492506004810190505b606483106118b357606483816118a9576118a861260b565b5b0492506002810190505b600a83106118c2576001810190505b80915050919050565b60008073ffffffffffffffffffffffffffffffffffffffff168373ffffffffffffffffffffffffffffffffffffffff161415801561198357508273ffffffffffffffffffffffffffffffffffffffff168473ffffffffffffffffffffffffffffffffffffffff16148061194457506119438484610aa1565b5b8061198257508273ffffffffffffffffffffffffffffffffffffffff1661196a83610cad565b73ffffffffffffffffffffffffffffffffffffffff16145b5b90509392505050565b600073ffffffffffffffffffffffffffffffffffffffff168273ffffffffffffffffffffffffffffffffffffffff16036119fe5760006040517f64a0ae920000000000000000000000000000000000000000000000000000000081526004016119f59190611caa565b60405180910390fd5b6000611a0c83836000610d04565b9050600073ffffffffffffffffffffffffffffffffffffffff168173ffffffffffffffffffffffffffffffffffffffff1614611a805760006040517f73c6ac6e000000000000000000000000000000000000000000000000000000008152600401611a779190611caa565b60405180910390fd5b505050565b6000604051905090565b600080fd5b600080fd5b60007fffffffff0000000000000000000000000000000000000000000000000000000082169050919050565b611ace81611a99565b8114611ad957600080fd5b50565b600081359050611aeb81611ac5565b92915050565b600060208284031215611b0757611b06611a8f565b5b6000611b1584828501611adc565b91505092915050565b60008115159050919050565b611b3381611b1e565b82525050565b6000602082019050611b4e6000830184611b2a565b92915050565b600081519050919050565b600082825260208201905092915050565b60005b83811015611b8e578082015181840152602081019050611b73565b60008484015250505050565b6000601f19601f8301169050919050565b6000611bb682611b54565b611bc08185611b5f565b9350611bd0818560208601611b70565b611bd981611b9a565b840191505092915050565b60006020820190508181036000830152611bfe8184611bab565b905092915050565b6000819050919050565b611c1981611c06565b8114611c2457600080fd5b50565b600081359050611c3681611c10565b92915050565b600060208284031215611c5257611c51611a8f565b5b6000611c6084828501611c27565b91505092915050565b600073ffffffffffffffffffffffffffffffffffffffff82169050919050565b6000611c9482611c69565b9050919050565b611ca481611c89565b82525050565b6000602082019050611cbf6000830184611c9b565b92915050565b611cce81611c89565b8114611cd957600080fd5b50565b600081359050611ceb81611cc5565b92915050565b60008060408385031215611d0857611d07611a8f565b5b6000611d1685828601611cdc565b9250506020611d2785828601611c27565b9150509250929050565b600080600060608486031215611d4a57611d49611a8f565b5b6000611d5886828701611cdc565b9350506020611d6986828701611cdc565b9250506040611d7a86828701611c27565b9150509250925092565b600060208284031215611d9a57611d99611a8f565b5b6000611da884828501611cdc565b91505092915050565b611dba81611c06565b82525050565b6000602082019050611dd56000830184611db1565b92915050565b600080fd5b600080fd5b7f4e487b7100000000000000000000000000000000000000000000000000000000600052604160045260246000fd5b611e1d82611b9a565b810181811067ffffffffffffffff82111715611e3c57611e3b611de5565b5b80604052505050565b6000611e4f611a85565b9050611e5b8282611e14565b919050565b600067ffffffffffffffff821115611e7b57611e7a611de5565b5b611e8482611b9a565b9050602081019050919050565b82818337600083830152505050565b6000611eb3611eae84611e60565b611e45565b905082815260208101848484011115611ecf57611ece611de0565b5b611eda848285611e91565b509392505050565b600082601f830112611ef757611ef6611ddb565b5b8135611f07848260208601611ea0565b91505092915050565b60008060408385031215611f2757611f26611a8f565b5b6000611f3585828601611cdc565b925050602083013567ffffffffffffffff811115611f5657611f55611a94565b5b611f6285828601611ee2565b9150509250929050565b611f7581611b1e565b8114611f8057600080fd5b50565b600081359050611f9281611f6c565b92915050565b60008060408385031215611faf57611fae611a8f565b5b6000611fbd85828601611cdc565b9250506020611fce85828601611f83565b9150509250929050565b600067ffffffffffffffff821115611ff357611ff2611de5565b5b611ffc82611b9a565b9050602081019050919050565b600061201c61201784611fd8565b611e45565b90508281526020810184848401111561203857612037611de0565b5b612043848285611e91565b509392505050565b600082601f8301126120605761205f611ddb565b5b8135612070848260208601612009565b91505092915050565b6000806000806080858703121561209357612092611a8f565b5b60006120a187828801611cdc565b94505060206120b287828801611cdc565b93505060406120c387828801611c27565b925050606085013567ffffffffffffffff8111156120e4576120e3611a94565b5b6120f08782880161204b565b91505092959194509250565b6000806040838503121561211357612112611a8f565b5b600061212185828601611cdc565b925050602061213285828601611cdc565b9150509250929050565b7f4e487b7100000000000000000000000000000000000000000000000000000000600052602260045260246000fd5b6000600282049050600182168061218357607f821691505b6020821081036121965761219561213c565b5b50919050565b60006060820190506121b16000830186611c9b565b6121be6020830185611db1565b6121cb6040830184611c9b565b949350505050565b60008190508160005260206000209050919050565b60006020601f8301049050919050565b600082821b905092915050565b6000600883026122357fffffffffffffffffffffffffffffffffffffffffffffffffffffffffffffffff826121f8565b61223f86836121f8565b95508019841693508086168417925050509392505050565b6000819050919050565b600061227c61227761227284611c06565b612257565b611c06565b9050919050565b6000819050919050565b61229683612261565b6122aa6122a282612283565b848454612205565b825550505050565b600090565b6122bf6122b2565b6122ca81848461228d565b505050565b5b818110156122ee576122e36000826122b7565b6001810190506122d0565b5050565b601f82111561233357612304816121d3565b61230d846121e8565b8101602085101561231c578190505b612330612328856121e8565b8301826122cf565b50505b505050565b600082821c905092915050565b600061235660001984600802612338565b1980831691505092915050565b600061236f8383612345565b9150826002028217905092915050565b61238882611b54565b67ffffffffffffffff8111156123a1576123a0611de5565b5b6123ab825461216b565b6123b68282856122f2565b600060209050601f8311600181146123e957600084156123d7578287015190505b6123e18582612363565b865550612449565b601f1984166123f7866121d3565b60005b8281101561241f578489015182556001820191506020850194506020810190506123fa565b8683101561243c5784890151612438601f891682612345565b8355505b6001600288020188555050505b505050505050565b7f4e487b7100000000000000000000000000000000000000000000000000000000600052601160045260246000fd5b600061248b82611c06565b91507fffffffffffffffffffffffffffffffffffffffffffffffffffffffffffffffff82036124bd576124bc612451565b5b600182019050919050565b600081905092915050565b60006124de82611b54565b6124e881856124c8565b93506124f8818560208601611b70565b80840191505092915050565b600061251082856124d3565b915061251c82846124d3565b91508190509392505050565b600081519050919050565b600082825260208201905092915050565b600061254f82612528565b6125598185612533565b9350612569818560208601611b70565b61257281611b9a565b840191505092915050565b60006080820190506125926000830187611c9b565b61259f6020830186611c9b565b6125ac6040830185611db1565b81810360608301526125be8184612544565b905095945050505050565b6000815190506125d881611ac5565b92915050565b6000602082840312156125f4576125f3611a8f565b5b6000612602848285016125c9565b91505092915050565b7f4e487b7100000000000000000000000000000000000000000000000000000000600052601260045260246000fd5b600060408201905061264f6000830185611c9b565b61265c6020830184611db1565b939250505056fea2646970667358221220fe71e28c79a933b2eb3988b105f5bb485d35d0bbeb7fb088e804568c4116638a64736f6c634300081c0033",
  "linkReferences": {},
  "deployedLinkReferences": {}
}